:100000000C9461000C947E000C947E000C947E0095
:100010000C947E000C947E000C947E000C947E0068
:100020000C947E000C947E000C947E000C947E0058
:100030000C947E000C947E000C947E000C947E0048
:100040000C94C3030C947E000C947E000C947E00F0
:100050000C947E000C947E000C947E000C947E0028
:100060000C947E000C947E00000000080002010049
:100070000003040700000000000000000102040863
:100080001020408001020408102001020408102002
:10009000040404040404040402020202020203032E
:1000A00003030303000000002300260029000000D2
:1000B0000000250028002B0000000000240027007D
:1000C0002A0011241FBECFEFD8E0DEBFCDBF11E064
:1000D000A0E0B1E0E2EFFBE002C005900D92A43198
:1000E000B107D9F721E0A4E1B1E001C01D92A3322C
:1000F000B207E1F70E94B4030C94F7050C940000DA
:1001000061E082E00E941B0361E086E00E941B0325
:1001100061E085E00E941B0361E083E00E941B0315
:1001200060E08EE00E941B0360E08FE00E941B03F2
:1001300060E080E10E941B0360E084E00E941B03FA
:1001400060E087E00E941B0360E088E00E941B03E0
:1001500060E089E00E941B0360E08AE00E941B03CC
:1001600060E08BE00E941B0360E08CE00E941B03B8
:1001700060E08DE00C941B03CF92DF92EF92FF9230
:100180000F931F93CF93DF9384E00E948A0387E04D
:100190000E948A038C0188E00E948A0328EE33E0E3
:1001A000029FE001039FD00D129FD00D112420ED7E
:1001B00037E0AC01429FC001439F900D529F900DCC
:1001C0001124C80FD91F89E00E948A0328EB3BE065
:1001D000AC01429FC001439F900D529F900D11248E
:1001E000C80FD91F8AE00E948A0320EA3FE0AC01D1
:1001F000429FC001439F900D529F900D1124C80F44
:10020000D91F8BE00E948A0328E833E1AC01429FAA
:10021000C001439F900D529F900D1124C80FD91F0C
:100220008CE00E948A0320E737E1AC01429FC001C5
:10023000439F900D529F900D1124C80FD91F8DE040
:100240000E948A0328E53BE1AC01429FC001439F25
:10025000900D529F900D1124C80FD91F84E00E9469
:100260008A038C0187E00E948A03080F191F88E027
:100270000E948A03080F191F89E00E948A03080F51
:10028000191F8AE00E948A03080F191F8BE00E9441
:100290008A03080F191F8CE00E948A03080F191F98
:1002A0008DE00E948A03B801680F791FCE010E9479
:1002B000CF05EB018B010C5A1D40101611060CF0F6
:1002C00066C0C0911401D0911501B801882777FD4F
:1002D0008095982F0E94E004209108013091090137
:1002E00040910A0150910B010E946C056B017C0149
:1002F000B8016C1B7D0B882777FD8095982F0E9495
:10030000E0042091040130910501409106015091D3
:1003100007010E946C059B01AC01C701B6010E9458
:1003200049046B017C01B8016C0F7D1F882777FDA4
:100330008095982F0E94E0042091000130910101E6
:1003400040910201509103010E946C059B01AC0198
:10035000C701B6010E9449040E94AD0420910E011C
:1003600030910F01260F371F309319012093180188
:1003700020910C0130910D01261B370B3093170192
:1003800020931601109315010093140167C0012BEF
:1003900009F464C00091140110911501882777FDBC
:1003A0008095982F0E94E004209108013091090166
:1003B00040910A0150910B010E946C056B017C0178
:1003C000BE01601B710B882777FD8095982F0E94D6
:1003D000E004209104013091050140910601509103
:1003E00007010E946C059B01AC01C701B6010E9488
:1003F00049046B017C01BE01600F711F882777FDE6
:100400008095982F0E94E004209100013091010115
:1004100040910201509103010E946C059B01AC01C7
:10042000C701B6010E9449040E94AD0420910E014B
:1004300030910F01261B370B3093190120931801BF
:1004400020910C0130910D01260F371F30931701B9
:1004500020931601D0931501C093140180911201CD
:10046000909113012091180130911901821793077F
:1004700024F49093190180931801809110019091B8
:10048000110120911601309117018217930724F46E
:100490009093170180931601809118019091190192
:1004A00097FF04C010921901109218018091160153
:1004B0009091170197FF04C0109219011092180132
:1004C00061E082E00E94540360E086E00E945403F1
:1004D0002091180130911901809116019091170116
:1004E0008217930744F46FEF70E085E00E94930257
:1004F00060E070E00DC0281739071CF460E070E080
:1005000002C06FEF70E085E00E9493026FEF70E031
:1005100083E0DF91CF911F910F91FF90EF90DF90DB
:10052000CF900C9493021F93CF93DF93182FEB017E
:1005300061E00E941B03209711F460E004C0CF3FEC
:10054000D10539F461E0812FDF91CF911F910C9497
:100550005403E12FF0E0E859FF4FE491E330F9F064
:1005600048F4E130B9F0E230A1F584B5806284BD91
:10057000C8BD34C0E730E9F0E83019F1E43049F59E
:1005800080918000806280938000D0938B00C09324
:100590008A0024C084B5806884BDC7BD1FC0809117
:1005A0008000806880938000D0938900C093880089
:1005B00015C08091B00080688093B000C093B300F4
:1005C0000DC08091B00080628093B000C093B400F1
:1005D00005C0C038D1050CF0B5CFAFCFDF91CF91BA
:1005E0001F910895833081F028F4813099F0823092
:1005F000A1F008958730A9F08830B9F08430D1F4A3
:10060000809180008F7D03C0809180008F778093E0
:100610008000089584B58F7702C084B58F7D84BD36
:1006200008958091B0008F7703C08091B0008F7DD6
:100630008093B0000895CF93DF9390E0FC01E458DD
:10064000FF4F2491FC01E057FF4F8491882349F12B
:1006500090E0880F991FFC01E854FF4FA591B491D9
:1006600082559F4FFC01C591D4919FB7611108C07D
:10067000F8948C91209582238C93888182230AC0E0
:10068000623051F4F8948C91322F309583238C93FF
:100690008881822B888304C0F8948C91822B8C9360
:1006A0009FBFDF91CF9108950F931F93CF93DF9357
:1006B0001F92CDB7DEB7282F30E0F901E859FF4F80
:1006C0008491F901E458FF4F1491F901E057FF4F6D
:1006D00004910023C9F0882321F069830E94F2026B
:1006E0006981E02FF0E0EE0FFF1FE255FF4FA5916B
:1006F000B4919FB7F8948C91611103C01095812338
:1007000001C0812B8C939FBF0F90DF91CF911F91E0
:100710000F910895CF93DF93282F30E0F901E85926
:10072000FF4F8491F901E458FF4FD491F901E0574C
:10073000FF4FC491CC2391F081110E94F202EC2F63
:10074000F0E0EE0FFF1FEC55FF4FA591B4912C91F7
:100750002D2381E090E021F480E002C080E090E071
:10076000DF91CF91089508950E940D040E94B30374
:100770000E948000C0E0D0E00E94BC002097E1F31E
:100780000E940000F9CF1F920F920FB60F92112412
:100790002F933F938F939F93AF93BF9380911B01B0
:1007A00090911C01A0911D01B0911E0130911A0180
:1007B00023E0230F2D3720F40196A11DB11D05C0A4
:1007C00026E8230F0296A11DB11D20931A018093E4
:1007D0001B0190931C01A0931D01B0931E018091F9
:1007E0001F0190912001A0912101B0912201019659
:1007F000A11DB11D80931F0190932001A0932101A1
:10080000B0932201BF91AF919F918F913F912F9112
:100810000F900FBE0F901F901895789484B582604A
:1008200084BD84B5816084BD85B5826085BD85B594
:10083000816085BDEEE6F0E0808181608083E1E843
:10084000F0E010828081826080838081816080837B
:10085000E0E8F0E0808181608083E1EBF0E080817E
:1008600084608083E0EBF0E0808181608083EAE750
:10087000F0E08081846080838081826080838081D9
:10088000816080838081806880831092C100089598
:100890005058BB27AA270ED0E5C0D6D030F0DBD009
:1008A00020F031F49F3F11F41EF4CBC00EF4E0951C
:1008B000E7FBC1C0E92FE7D080F3BA1762077307DF
:1008C0008407950718F071F49EF5FFC00EF4E095CB
:1008D0000B2EBA2FA02D0B01B90190010C01CA01FA
:1008E000A0011124FF27591B99F0593F50F4503EA5
:1008F00068F11A16F040A22F232F342F4427585F97
:10090000F3CF469537952795A795F0405395C9F7AE
:100910007EF41F16BA0B620B730B840BBAF0915066
:10092000A1F0FF0FBB1F661F771F881FC2F70EC005
:10093000BA0F621F731F841F48F4879577956795D8
:10094000B795F7959E3F08F0B3CF9395880F08F0C1
:100950009927EE0F97958795089504D06894B11163
:10096000B5C0089598D088F09F5790F0B92F992777
:10097000B751A0F0D1F0660F771F881F991F1AF0AA
:10098000BA95C9F712C0B13081F09FD0B1E0089597
:100990009CC0672F782F8827B85F39F0B93FCCF318
:1009A000869577956795B395D9F73EF490958095A0
:1009B000709561957F4F8F4F9F4F0895E89409C0C0
:1009C00097FB3EF490958095709561957F4F8F4F82
:1009D0009F4F9923A9F0F92F96E9BB279395F69598
:1009E000879577956795B795F111F8CFFAF4BB0F16
:1009F00011F460FF1BC06F5F7F4F8F4F9F4F16C07A
:100A0000882311F096E911C0772321F09EE8872F03
:100A1000762F05C0662371F096E8862F70E060E0BF
:100A20002AF09A95660F771F881FDAF7880F969538
:100A3000879597F9089597F99F6780E870E060E0DF
:100A400008959FEF80EC089500240A941616170667
:100A500018060906089500240A94121613061406AF
:100A600005060895092E0394000C11F4882352F012
:100A7000BB0F40F4BF2B11F460FF04C06F5F7F4FCA
:100A80008F4F9F4F089557FD9058440F551F59F0B1
:100A90005F3F71F04795880F97FB991F61F09F3F6B
:100AA00079F087950895121613061406551FF2CF94
:100AB0004695F1DF08C0161617061806991FF1CFE4
:100AC00086957105610508940895E894BB2766270B
:100AD0007727CB0197F908950BD0C4CFB5DF28F065
:100AE000BADF18F0952309F0A6CFABCF1124EECFD3
:100AF000CADFA0F3959FD1F3950F50E0551F629F79
:100B0000F001729FBB27F00DB11D639FAA27F00D66
:100B1000B11DAA1F649F6627B00DA11D661F829F8D
:100B20002227B00DA11D621F739FB00DA11D621F72
:100B3000839FA00D611D221F749F3327A00D611D8F
:100B4000231F849F600D211D822F762F6A2F112471
:100B50009F5750408AF0E1F088234AF0EE0FFF1FC4
:100B6000BB1F661F771F881F91505040A9F79E3FFB
:100B7000510570F060CFAACF5F3FECF3983EDCF3F5
:100B8000869577956795B795F795E7959F5FC1F738
:100B9000FE2B880F911D9695879597F9089597FBE1
:100BA000072E16F4009407D077FD09D00E94E305C4
:100BB00007FC05D03EF4909581959F4F0895709560
:100BC00061957F4F0895AA1BBB1B51E107C0AA1F67
:100BD000BB1FA617B70710F0A61BB70B881F991FDE
:100BE0005A95A9F780959095BC01CD010895F89488
:020BF000FFCF35
:100BF2008FC2F53C0AD7233C0000004096009600C5
:040C0200E600E60022
:00000001FF
